:020000040000FA
:10000000D12982077B3441343D346D3447346E341A
:10001000763449347F344F3400343E34FF34820721
:10002000DD341434EC347C3435347934F1341C341C
:10003000FD343D340034E934FF3482077B344134ED
:100040003D346D3447346E34763449347F344F3424
:1000500000343E34FF348207DD341434EC347C3415
:1000600035347934F1341C34FD343D340034E93412
:10007000FF3482071E34A0343E3400341F34D034A1
:10008000123479343A34B0343634A03482070F3421
:100090004234403401348634A034003427341034E0
:1000A00000340334E8340034003464340034003461
:1000B0000A3400340034013486010F3085000130E9
:1000C0008316860083120310061C03140030831667
:1000D000860083120800B9007F390120B91B8038DF
:1000E000C1000800B9007F390F20B91B0238C000D9
:1000F0000800B9007F391D20B91B8038C3000800F3
:10010000B9007F392B20B91B0238C2000800000853
:10011000860038088500B70A380DB71AB80DB71A27
:10012000840A0411B712080040308400EE30B80091
:10013000B70187201830A900A90B9C286400000093
:10014000A8080319A703A80327082804031D992852
:10015000080040308400EE30B800B701AB01AC01BC
:10016000AD01A6018101000000005C2003189D295B
:1001700087200D30A900A90BBB2864000108AD0041
:100180000130A61F0301AD1B0301AC070318AB0A26
:10019000AB1BDE282D08A600A8080319A703A80397
:1001A00027082804031DB5280108AD000130A61F4B
:1001B0000301AD1B0301AC070318AB0A0800403074
:1001C0008400EE30B800FF30AB00AC00AD01051E7E
:1001D000FC2800088600051EFC2838088500051E3E
:1001E000FC28840A0411380DB80DA701051EFC284F
:1001F000A70BF6286400E728051A112900088600D5
:10020000051A112938088500051A1129840A0411D4
:10021000380DB80DA701051A1129A70B0B29640089
:10022000FC28051E3B29AC0A0319AB0A051E392917
:10023000AB1B3E29AD0A051E392900088600AD0A10
:10024000051E392938088500AD0A051E3929840A9A
:100250000411AD0A051E3929380DB80DAD0A051E69
:100260003929AD0AAD0A6400051E3E29AD0F3429B7
:100270001129AD0A3E29AC0A0319AB0A8601080010
:10028000A2012E30840022084620A300A20A2208E0
:100290004620A400A20A22084620A500A20A800146
:1002A00051222508AD02240803185B29AC0203196A
:1002B0000310AC035C29AC02230803186429AB02C9
:1002C00003190310AB036529AB02031C6929800ADB
:1002D00050292508AD072408031C7329AC07AC0A74
:1002E000031903147429AC072308031C7C29AB07EA
:1002F000AB0A031903147D29AB07840A15302202C7
:10030000031D43290800B1172E3084008008031D07
:100310009129840A8008031D9129840A8008031901
:10032000840A00086B20840A00087220840A0008EE
:100330007920840A000880200800BE213230AA00FB
:100340000330A700E830A80094205C20031CB029EB
:10035000AA0BA029A00A033020020319A0019D299D
:100360002730A7001030A80094200A306B200A30F4
:1003700072200A3079200A308020F62920082007D0
:10038000BA00BA073A0839207020BA0A3A08392068
:100390007720BA0A3A0839207E203A0A3920852087
:1003A00008008501F0308316850083128601003035
:1003B0008316860083128B1307309F00A0010C3038
:1003C0006B200C3072200C3079200C3080200730EC
:1003D000831681008312A701A80194200A306B20A4
:1003E0000A3072200A3079200A308020F0308316DB
:1003F0008500831200308316860083128B1307302A
:100400009F00A0080319082A20030319372A6D2A20
:10041000640020308316810083121830A7006A30F0
:10042000A800A9200430AA000310AD0DAC0DAB0D3F
:10043000AA0B142AAB08031D2D2A27302C020318FF
:100440002D2A640081012F308316810083126400FD
:10045000C330A7005030A800A9202B082C042D047D
:100460000319AE2AAB1BB72A40218321082A5C203E
:1004700003189D29640081010F30831681008312C7
:100480006400DF202B082C042D040319AE2AAB1BBB
:10049000B72A402183211330A7008830A800942078
:1004A000372A02302002031D6C2A0108BA002608F0
:1004B0003A02B6070318B50A27303502103003197F
:1004C0003602031C6A2A2730B5021030B602031C1C
:1004D000B50321143A08A6000800640081012F30FA
:1004E0008316810083126400B501B601A101A60143
:1004F000810140308400EE30B800B7011330A7000E
:100500008830A800640051225C2003189D295122E4
:1005100087205122A8080319A703A8032708280445
:10052000031D822AAB013508AC003608AD0040211E
:100530005122B1132118B117B2132118B217B313F6
:100540002118B317B4132118B41731086B203208DF
:1005500072203308792034088020792A0A306B20F1
:100560000A3072200A30792000308020F6290A30C3
:100570006B200A3072200A3079200B308020F62957
:084000000B000A0002000000A1
:02400E00461F4B
:00000001FF
